:020000040000fa
:080000000001040000000000f3
:020000040000fa
:0400080038020000ba
:020000040000fa
:04000c0038020000b6
:020000040000fa
:0400100038020000b2
:020000040000fa
:0400140038020000ae
:020000040000fa
:0400180038020000aa
:020000040000fa
:04001c0038020000a6
:020000040000fa
:0400200038020000a2
:020000040000fa
:04002400380200009e
:020000040000fa
:04002800f6010000dd
:020000040000fa
:04002c003802000096
:020000040000fa
:040030003802000092
:020000040000fa
:04003400380200008e
:020000040000fa
:04003800380200008a
:020000040000fa
:04003c003802000086
:020000040000fa
:040040003802000082
:020000040000fa
:04004400380200007e
:020000040000fa
:04004800380200007a
:020000040000fa
:04004c003802000076
:020000040000fa
:040050003802000072
:020000040000fa
:04005400380200006e
:020000040000fa
:04005800380200006a
:020000040000fa
:04005c003802000066
:020000040000fa
:040060003802000062
:020000040000fa
:04006400380200005e
:020000040000fa
:040068000e02000084
:020000040000fa
:04006c003802000056
:020000040000fa
:040070003802000052
:020000040000fa
:04007400380200004e
:020000040000fa
:04007800380200004a
:020000040000fa
:04007c003802000046
:020000040000fa
:040080003802000042
:020000040000fa
:04008400380200003e
:020000040000fa
:04008800c8010000ab
:020000040000fa
:04008c003802000036
:020000040000fa
:040090003802000032
:020000040000fa
:04009400380200002e
:020000040000fa
:04009800380200002a
:020000040000fa
:04009c003802000026
:020000040000fa
:0400a0003802000022
:020000040000fa
:0400a400380200001e
:020000040000fa
:0400a800380200001a
:020000040000fa
:0400ac003802000016
:020000040000fa
:0400b0003802000012
:020000040000fa
:0400b400380200000e
:020000040000fa
:0400b800380200000a
:020000040000fa
:0400bc003802000006
:020000040000fa
:0400c0003802000002
:020000040000fa
:0400c40038020000fe
:020000040000fa
:0400c80038020000fa
:020000040000fa
:0400cc0038020000f6
:020000040000fa
:0400d00038020000f2
:020000040000fa
:0400d40038020000ee
:020000040000fa
:0400d80038020000ea
:020000040000fa
:0401080038020000b9
:020000040000fa
:04010c0038020000b5
:020000040000fa
:0401100038020000b1
:020000040000fa
:0401140038020000ad
:020000040000fa
:0401180038020000a9
:020000040000fa
:04011c0038020000a5
:020000040000fa
:0401200038020000a1
:020000040000fa
:04012400380200009d
:020000040000fa
:04012800f6010000dc
:020000040000fa
:04012c003802000095
:020000040000fa
:040130003802000091
:020000040000fa
:04013400380200008d
:020000040000fa
:040138003802000089
:020000040000fa
:04013c003802000085
:020000040000fa
:040140003802000081
:020000040000fa
:04014400380200007d
:020000040000fa
:040148003802000079
:020000040000fa
:04014c003802000075
:020000040000fa
:040150003802000071
:020000040000fa
:04015400380200006d
:020000040000fa
:040158003802000069
:020000040000fa
:04015c003802000065
:020000040000fa
:040160003802000061
:020000040000fa
:04016400380200005d
:020000040000fa
:040168000e02000083
:020000040000fa
:04016c003802000055
:020000040000fa
:040170003802000051
:020000040000fa
:04017400380200004d
:020000040000fa
:040178003802000049
:020000040000fa
:04017c003802000045
:020000040000fa
:040180003802000041
:020000040000fa
:04018400380200003d
:020000040000fa
:04018800c8010000aa
:020000040000fa
:04018c003802000035
:020000040000fa
:040190003802000031
:020000040000fa
:04019400380200002d
:020000040000fa
:040198003802000029
:020000040000fa
:04019c003802000025
:020000040000fa
:0401a0003802000021
:020000040000fa
:0401a400380200001d
:020000040000fa
:0401a8003802000019
:020000040000fa
:0401ac003802000015
:020000040000fa
:0401b0003802000011
:020000040000fa
:0401b400380200000d
:020000040000fa
:0401b8003802000009
:020000040000fa
:0401bc003802000005
:020000040000fa
:0401c0003802000001
:020000040000fa
:0401c40038020000fd
:020000040000fa
:0401c80038020000f9
:020000040000fa
:0401cc0038020000f5
:020000040000fa
:0401d00038020000f1
:020000040000fa
:0401d40038020000ed
:020000040000fa
:0401d80038020000e9
:020000040000fa
:100200000f8720000eff20000e0188000000000074
:10021000000020000000e000020032000001200089
:100220002002880014000700930007000000e0008f
:1002300003003a0000712100010020000200370095
:100240000000200001002000810f7000010032003a
:1002500014000700000020000000e000020032004f
:10026000000002000000000056160200000000001e
:100270000040da000000fe004440a900e000200039
:100280000000e0000300320000002000a001880010
:100290004440a800000006008a1f78008b1f7800e9
:1002a0000000060091018800800478000000eb0047
:1002b0001a003700e284440032a0b4009905ba0065
:1002c000e284440032a0b4009906ba00e2844400fb
:1002d00032a0b4000006eb00476fde00fd07b2005d
:1002e000636ce10003003a00ebff07000000eb0045
:1002f0000a003700606ce10004003a00005deb008a
:100300008b05e900fdff3e00040037006168e10055
:10031000010032000086eb000b00070019c7ba008d
:100320001905ba000e04e00003003a000a00e000dc
:10033000e0ff3a0000000600fe07b2009e018800c0
:100340008a047800f5ff3700395dba008b05e900b3
:100350000c003200295dba008b05e900080032006c
:100360000c00e00003003a00e284440032a0b40034
:10037000f5ff370019ddba008b05e900faff3a00f6
:100380008904e800e184440032a0b40000000600c3
:100390003600f800809fbe00829fbe00849fbe0092
:1003a000869fbe003400f80000002000a0018800f5
:1003b0000200fa008700a900e0108000004f7800da
:1003c0009e40780020812000ef0907000080fa009d
:1003d0003400f9004f03be004f02be004f01be00c3
:1003e0004f00be003600f90000400600801f780074
:1003f0003400f80000002000a00188000000fa008e
:100400008400a90000408000d01088000080fa001d
:100410003400f9004f007800004006003600f80074
:10042000809fbe00829fbe00849fbe00869fbe004c
:100430003400f80000002000a00188000000fa004d
:100440008600a900b20907000028ef00c0090700d4
:100450000080fa003400f9004f03be004f02be00d6
:100460004f01be004f00be003600f90000400600fc
:100470000040da000000fe00000005000001be00a0
:10048000220007000470a70003f0a1006509b10075
:10049000160032000d0035006828e1000600350026
:1004a000f0ff2f00f1ff27000300e00013003b00e6
:1004b0000100280000000500000040008180480085
:1004c0008502e900fcff3a0008003700f88f42007f
:1004d00002003c008000eb00000005008100d1001c
:1004e0000080d3008502e800fcff3a000300e00032
:1004f00002003b0060001000e080180000000600d1
:100500004f89de008201780017013700c70ade003c
:10051000f107b200f50fb20008003200e1cf42004f
:10052000020032000170a00024000500810f70005d
:10053000010032000408050044000500810f70002e
:1005400002003a00140005008502e90000004000a6
:1005500081c04800fcff3b000170a00024000500a2
:10056000038368000700280007036300470ade00d2
:100570000480a100c71ade000580a100f70f20004b
:100580000720e100420032000728e100400032006d
:10059000889fbe008a9fbe008c1f7800f107b200c2
:1005a000f307b2000400e000640032000170a00014
:1005b0000500e000680032000370a00085054200dd
:1005c000eb07b1000204b8000302b80084844400c1
:1005d00060854a00020ab800848444000a854a0003
:1005e000030ab80004054500040033000804d000e5
:1005f0008984d2000a85d2008b05e9006158e100a8
:100600003d003500021020000901610003082000b0
:1006100089816100f70720008783640008867300e2
:10062000c84cde00c853dd00878474004855de00e6
:100630000300e0000600320082037600040032006e
:100640008904e80060054d000a88a3000c003a0008
:10065000f70f20000758e10044003d000a70a10098
:10066000c75ddd000a8575008a0073000900780007
:100670004f0678004f05be004f04be000000060084
:100680000a05d1008984d3008b05e800f0ff37000c
:10069000881f7800060478009000070007027800a1
:1006a0000001fd008101fd008c0007008702780039
:1006b000850372000778a300050032000001fd00e9
:1006c0008101fd009f0007004f0478000000060034
:1006d000850372000748a30003003200f0ff2f00db
:1006e000f1ff2700f8ff37000000200001f8270085
:1006f00088807000f4ff3700880178004848dd00ea
:10070000808171004848de00c850dd0001007000a3
:10071000c850de00060478000b01780016000700c0
:1007200088807000d2ff37000500e000050032002d
:10073000170020003a0007009dff3700810370007a
:10074000f9ff3a00860078004f0678004f05be009a
:100750004f04be000000050083037100f9ff320062
:10076000270020002e00070094ff370001f8270023
:1007700086807000f4ff37000100e00026003200a0
:10078000610111007810e10023003c006022b800f4
:100790007010e1000400350080027800010078004c
:1007a0008000eb00700151000200e00009003400fd
:1007b00070031100062add00822ade008603dd00b8
:1007c000878272000200de00860bdd0007007000e9
:1007d0008208de0084817100f4ff27000482620039
:1007e000848171000400280084826200610260003c
:1007f00005f0a60000000600048271000700320028
:100800000000e800e0804800000006000002be0092
:100810006000b800efff37006000b800000006007d
:10082000889fbe000004eb006138e10016003a002a
:100830000100e00008003a00c800de004800dd00ca
:10084000880020000100e00003003a00c800de003c
:100850004800dd00680444008184cf00e98454002e
:10086000060034008908dd00f08314008703de00f1
:10087000878070000900dd00090444006102140053
:100880004f04be00000006000300e00008003a002c
:10089000c811de004811dd00880020000300e000e0
:1008a00003003a00c811de004811dd00680444006e
:1008b0008384cf00e9845400060034008919dd00e8
:1008c000f08314008713de00878171000911dd00b9
:1008d00009044400e1021400e9ff3700270020006a
:1008e00001f0a70017002000470bde00f60fb20052
:1008f000040032000643e8000a0032004702b30059
:100900000000060001037800f607b200060370003d
:1009100002003a000703b300000006008702b3009c
:100920000000060001037800f607b200060370001d
:10093000020032000770a000000006000760a0005f
:10094000000006000478a300040032000578a3002c
:10095000030032000168a30001003a000200be005b
:100960000160a00000000600881f780003047800e2
:100970000300e00007003d0060001000e080180068
:1009800060011900e081190002003b0001f02d0018
:10099000030037000400070008f0a70001f0a000e2
:1009a0004f04780000000600889fbe008a9fbe00aa
:1009b000008270000402710004827100260032007f
:1009c0000004be000200be006011b8006b092000e8
:1009d000950220000182cf000a0039000541b100d4
:1009e0000082cf00070039000541b1000982cf0025
:1009f000040039000541b1000882cf000100390030
:100a00000541b10005425200120032000a003b00cd
:100a100082817100610164008100d1000080d300f7
:100a20008984d3000884d3008b05e8000442e800e1
:100a3000f7ff3a00070037000804440089844c009f
:100a400000004800818048008b05e9000442e9006d
:100a5000f9ff3a00030007004f05be004f04be0037
:100a60000000060081002000618055000b003d0061
:100a70000b00200061fe2f000100e1001d0034008a
:100a800082817100610164008904d1000884d3006f
:100a90000000e800faff3a007100200061006400e5
:100aa000030070000200600009003200610444008d
:100ab000e0844c000988a500050032008b05e800a1
:100ac0006808e10002003a008904d1000884d300dc
:100ad000f20f20000258e10005003d00c75ddd0077
:100ae000f907b20089807500080078000000060050
:100af0000bf827008b007800000005000000fa00ca
:100b0000cfb8970068815700df0107000080fa0026
:100b100000000600040007005c0007000c0107004d
:100b2000340107008e003700ec874700889fbe0025
:100b30008a9fbe008c9fbe008e1f78000006780042
:100b400001047800180790002805900098067800a6
:100b5000cdb79f00b80590003202be002203be0050
:100b60000400be000601be004f18de006011b80090
:100b70008000eb00d0b79f00e1b79f00f2b79f0065
:100b800083bf9f00800478000900e0000600320067
:100b90006000b8006011b80004025000858258005f
:100ba00006035900878359000e00e000020035005b
:100bb0000d10a100cdb79f000900e00005003a002c
:100bc0004fb097000028a30002003a000038a300ad
:100bd000020032008a00e900010037008a00780034
:100be000f8815700a2002000080078008600070066
:100bf0000900e00003003a00cfb097000128a300ed
:100c0000080032000000e90000814500b1c2b300d5
:100c10000900e00001003200d1c2b30001497800b0
:100c2000050037000138a300030032000000e9008e
:100c300001c2b30081757800480190000201e9000b
:100c400000015100808045004fb297008a01780072
:100c50000c007800a40107009c0090000188a3000c
:100c60000400320098009000810f500001003d0008
:100c7000010078004f0778004f06be004f05be0008
:100c80004f04be00cf00b100000006000200fa00d1
:100c9000889fbe008a9fbe0000057800010478008e
:100ca0000200780018019000a805900098007800d4
:100cb000b1bf9f00b80490000200e00002003500c0
:100cc0000110a100b1bf9f00ea81570082002000ff
:100cd0008b0078003002be002003be0008007800c0
:100ce000490007003fb99700f0006100030032009f
:100cf0000000e90001c3b300817478003fb9970098
:100d0000e8006100030032000000e90001c2b30006
:100d100081747800480190000201e900000151004f
:100d2000808044003fba97008b0178000a00780069
:100d30006d0107009a0090000188a30004003200b2
:100d400098009000810f500001003d0001007800e4
:100d50004f05be004f04be000080fa0000000600f0
:100d6000ea874700889fbe008a9fbe008e1f7800da
:100d700000047800030078007287570084e22600a0
:100d800055c72600049fbe00c3962200030f7800bb
:100d90006c875700004feb0011059000a1049000f4
:100da000910578000200e00002003200020778009e
:100db00001003700728757000000e00002003a008f
:100dc0000e007800850307000a00e00003003500ec
:100dd0008a0f5000010036000a0078000b027800ec
:100de00089017800000178008e0078000800780002
:100df0003d0107004f0778004f05be004f04be00bd
:100e0000af00b10000000600f4874700889fbe00d5
:100e10008a9fbe008c9fbe008e1f78000605be0014
:100e20000404be0081bf9f0082b79f00f3b79f00fc
:100e3000b0009000e1b79f001301780092b79f00c7
:100e400090069000400690000c06e9000d00e000be
:100e500001003d001d002000efb197000c80410013
:100e60000048eb001e0020001f0037000c06e900c0
:100e70000fb09700cf80de006109b900a0b79f00d6
:100e8000b1b79f00c2b79f00d3b79f000203be0057
:100e90000002be000800be000a01be00580507009f
:100ea00000077800efb097000c80400003c3b30048
:100eb000034847008d06e9000fb897000000e900dd
:100ec00080bf9f002fb29700bfb297004fb397002b
:100ed000dfb397000800be000a01be00410507000d
:100ee0000205be000004be000c00e0000d00320050
:100ef000e00f5400e08f5c00e00f5d00e08f5d00cc
:100f0000daff3a000d00e000d8ff3c008fb89700f0
:100f10000100e000030034001fb197000218a30095
:100f2000d2ff3a000e00e00002003a00ffb1970045
:100f30001340a1000c0078004f0778004f06be0058
:100f40004f05be004f04be004f01b1000000060077
:100f50000200fa00889fbe008a9fbe0080047800cd
:100f60000104780002007800180190002805900024
:100f700098007800b1bf9f00b80590000200e00023
:100f8000020035000110a100b1bf9f00ea815700a7
:100f9000a20020008a0078003002be002003be00bc
:100fa0000800780098ff0700480190000201e9005e
:100fb00000015100808045003fba97008a01780007
:100fc00009007800c8000700990090000188a3007c
:100fd0000400320098009000810f500001003d0095
:100fe000010078004f05be004f04be000080fa00eb
:100ff00000000600fa874700889fbe008a9fbe0057
:101000008c9fbe008e1f7800800478000104780059
:1010100082057800180190002805900018077800d4
:10102000b80090000200e000020035000e10a100a0
:10103000010037001200200070006700e0b79f0039
:10104000090032003b02be002b03be00e00f52003d
:10105000e08f5a00e00f5b00e08f5b00020032007f
:101060008a86e900010037008a067800e8026700f6
:10107000f5b79f00010032008d06e9003b02be007b
:101080002b03be00e4af9f00f5af9f0086b79f0023
:1010900097b79f00480690000c06e9000c804000be
:1010a0000048eb00efb297007fb297008903780009
:1010b00081047800d8af9f00020478008bbf9f00a6
:1010c0008a057800034578002a0037000c06e900fd
:1010d0006fab97006f006300e90f500002003c0007
:1010e0000003b000010037007005b0000a03fb00e8
:1010f0001604b100f90f53000c003e000003780005
:101100000650a0001606b100f90f530007003e007c
:10111000b4b79f00a5b79f00c7b79f003103070072
:10112000cfb39700afb297003fb2970080747e00b4
:101130000804e9008d06e9006fa89700ffa8970052
:101140000fb197009fb19700460020008301d100a6
:101150000281d3008180d3000080d3000603e90020
:10116000faff3a00e0af9f00f1af9f0082b79f0007
:1011700093b79f00e10f56000f0036006fa897004d
:10118000ffa897000fb197009fb19700e00f5000a4
:10119000e08f5800e00f5900e08f5900cbff3a0074
:1011a0000800e000c9ff3c000d00e0000200340030
:1011b0000e18a300c5ff3a0089007800f4b79f001d
:1011c000870478005fac97008a4178000b057800af
:1011d0008fbd97000500e000100032003b02be000a
:1011e0002b03be00e4af9f00f5af9f0086b79f00c2
:1011f00097b79f00e00f5200e08f5a00e00f5b00ae
:10120000e08f5b00050032000c06e90083707e0071
:101210000c06e90000c3b30080707e00ffb29700a7
:101220000500e000030032000c06e90000c2b30034
:1012300080707e00480190000201e9000c0151001d
:101240008c8040000e0278008a0178000900780046
:1012500025000700990090000188a30004003200d7
:1012600098009000810f500001003d0001007800bf
:101270004f0778004f06be004f05be004f04be006a
:10128000af01b10000000600820178000101780082
:10129000f1ff270069023700889fbe008a1f78008f
:1012a000800478004900900002047800800f540008
:1012b0000100360000047800080178006a854400c7
:1012c0001a007800db0107001a004400000d7800c6
:1012d000e8844400990c14000048eb004f057800a6
:1012e0004f04be0000000600f2874700889fbe0042
:1012f0008a9fbe008c9fbe008e1f780080047800fd
:101300000105780002047800830578006107620017
:1013100002003a008b0f54000800390008017800e1
:101320008a00780009007800dbff07008b0f54006b
:1013300002003900880578001e0037000886550035
:101340000c017800f00f5600010036000201200069
:10135000010220007e805700bd0107008c06780046
:101360000500370002012000fe80570009007800c8
:10137000c9ff0700f0865600ef8f5600f9ff3e00c8
:101380004461de0000ff2f000091b9000201460019
:10139000fe80570009007800bfff07000e00e00044
:1013a00004003a00080178008a00780009007800fb
:1013b000b9ff07000b0078004f0778004f06be000a
:1013c0004f05be004f04be002f01b1000000060013
:1013d0000000050000000500000005000001780085
:1013e0000040eb008080fb0081804000838520006e
:1013f00063c278000404e00003003a0090852000f6
:1014000060c078000000060092017800934f5200ff
:1014100004003a009085200060c078000309e800cd
:10142000010037000040e800ea4f5000edff3600b1
:1014300000000600f6874700889fbe008a9fbe0016
:101440008c9fbe008e1f7800800478000104780015
:1014500083057800040678000000eb00c0b79f0009
:101460008080eb00d1b79f00e0b79f00f2b79f00ec
:101470000008200080bf9f009800780001007800dd
:101480000005eb00010037000a05e8003041780054
:101490000204e0000300320053c2b300834f510046
:1014a000f9ff3a000a00e000040032000a01780067
:1014b0000900780078ff0700180c4500180778002d
:1014c00050c2b3009e4f100033013a000e07e800ef
:1014d0000e0c780010003700cfb097000100a0007c
:1014e0000b003700cfb097000110a00008003700b4
:1014f000cfb097000120a00005003700cfb09700c3
:101500000130a00002003700cfb097000140a000da
:10151000c1b79f00000ce8001800780090407800e8
:10152000b2c2b30082cf5000f1ff320007003c008e
:1015300002c2b30082cf5000f0ff320032c2b300cb
:1015400082cf500007003a00efff3700d2c2b3004d
:1015500082cf5000e0ff320002c3b30082cf5000c0
:10156000e0ff3200a2c2b30082cf50000d003a006b
:10157000000ce8001c80e900000e780010007800e4
:10158000e0b79f000000e0000f003d00cfb09700e3
:101590000100a200c1b79f000000ea00e0b79f0071
:1015a00009003700e2010700e0b79f0001003700a3
:1015b000000ce800180078009000fb000103b10067
:1015c000e98f5000faff36004fb097000008a300e3
:1015d000020032000010a100c0b79f001800780080
:1015e000e1c2b30090cf100016003a008000eb007b
:1015f000d1b79f000000e800000c7800a1c2b30042
:1016000090cf100006003a00000ce8001c80e900b2
:10161000000e780010007800d0b79f000900370056
:10162000c3010700d0b79f0001003700000ce8009d
:10163000180078009000fb000103b100e98f500012
:10164000faff36000800780064ff07008046780043
:10165000180078001000fb00db0107009106200055
:10166000810f50003800320012003c00410620007b
:10167000810f5000340032000a003c0011062000a7
:10168000810f50002000320031062000810f5000f1
:101690009a00320051022000810f5000ae003a0043
:1016a000a700370071062000810f5000aa003c00ff
:1016b0008200370001072000810f50005c003200db
:1016c00007003c00e1062000810f5000740032004a
:1016d000f1062000810f50009f003a0039003700ca
:1016e00051072000810f50002700320081072000a1
:1016f000810f50004200320031072000810f50005e
:1017000095003a00850037008d80fb000c017800c1
:1017100000fe2f000f004000b90107000000e000ac
:101720009c00320018007800000ce800904178001e
:1017300002fe2f000f014100f880570009007800d9
:1017400024ff07000e0037008d80fb008c0178001d
:101750001200200000fe2f000f004000c70107000c
:101760000000e0008b003200180ce80002fe2f00a1
:101770000f014100f880570009007800eafc0700db
:1017800000054500840037008d80fb008c01780047
:101790000001eb0000fe2f000f004000b701070022
:1017a0000000e0007b003200180ce80002fe2f0071
:1017b0000f014100f880570009007800e4fd0700a0
:1017c000efff37008d80fb008c0178000001eb00fb
:1017d00000fe2f000f004000a80107000000e000fd
:1017e0006c003200180ce80002fe2f000f014100cf
:1017f000f88057000900780024fd0700e0ff37005b
:101800008d80fb008c0178000001eb0000fe2f00b2
:101810000f004000990107000000e0005d00320069
:1018200018007800000ce80090417800160037009e
:101830008c0178000001eb00010f200000fe2f005a
:101840000f0040008d0107000000e0005100320051
:10185000180ce8000fb097009fb097002fb19700c9
:10186000bfb19700e00f5000e08f5800e00f590023
:10187000e08f590003003a008001eb002285200030
:101880004000370083c7b30002fe2f000f01410064
:10189000f880570009007800d6fd0700b8ff370030
:1018a0000b0145008d80fb008c01780000fe2f00ad
:1018b0000f004000ca010700360037008d80fb0092
:1018c0000c01780000fe2f000f0040004c010700c3
:1018d0000000e0002f00320018007800000ce80043
:1018e0009041780002fe2f000f014100f880570060
:1018f00009007800b7fe0700a1ff370000c8b30059
:1019000080cf560023003a00180ce8001c80e90044
:10191000000e7800104078000d00370000c8b300ba
:1019200080cf56001b003a00180ce8001c80e9002c
:10193000000e78008001eb001001780011003700e4
:1019400001c8b30081cf560012003a00180ce8001d
:10195000e0df9f000800370050c2b300e0df9f00c7
:101960000e0c78000000eb00c0b79f00e0b79f00ae
:101970008080eb00d1b79f0013002000e2fd2f0014
:101980000f014100f880570009007800f4fc0700bf
:101990007bff3700180ce8000a0078004f0778003a
:1019a0004f06be004f05be004f04be006f01b100e0
:1019b000000006008200fa00889fbe008a1f78009f
:1019c0000005780082047800c13f9f000004eb000e
:1019d000100037000902780088017800a2f72f0074
:1019e0000f01410081f72f008f8040000a0078002e
:1019f00090fe070008004000880f500004003d00e2
:101a0000b0042000704388000084eb00040037001d
:101a1000000478004f3897001004e000edff3a0012
:101a2000080078004f0578004f04be000080fa00df
:101a3000000006008001780002003700b1597800ec
:101a40000201e9000200e000fcff3a00000006008d
:101a5000889fbe008a9fbe00800478000200e000dc
:101a60005a00320001407800814c780082814400a5
:101a7000f1f99f00e20f51005400360091449800a4
:101a8000a1449800e1f99f00d1f99f00e60f5100b1
:101a90004e003600b1449800c1f99f00e80f510094
:101aa0004a0036000905ea00630565000a8444001f
:101ab0000a055100c1ff2f00010565000080fb00f1
:101ac0008000eb0012102000131020009d01070081
:101ad000008cbe000a01440060b99f0071b99f00ec
:101ae000e80f5500390036002004980031049800b2
:101af000400498005104980020b99f0031b99f001c
:101b000040b99f0051b99f00f80f55002f003600d3
:101b10006004980071049800000c9800110c980063
:101b2000200c9800310c9800400c9800510c980043
:101b300020b19f0031b19f0040b19f0051b19f0083
:101b400060b19f0071b19f0000b99f0011b99f0063
:101b5000640164007801410002044400020555005c
:101b60006011b8000203be000002be000403be0004
:101b70006022b800000072008180720002017300d0
:101b8000838173000f00370008027800009abe00be
:101b9000029abe00009abe000292be00000c98009d
:101ba000110c9800220c9800330c9800400c9800ff
:101bb000510c9800620c9800730c98000a02b10056
:101bc0000802b000ff0f5500efff3e00090078004b
:101bd0004f05be004f04be000000060080007800e4
:101be000040037003104e00002003a000000510018
:101bf00000000600010178000108a300f9ff3a0087
:101c00008101780031017800f4ef2f0002024200d8
:101c10000281ea0002016200040828000401610058
:101c2000f7ff320083007800010178003104e00002
:101c3000fdff3a000000510000000600f287470057
:101c40008e1f780002027800030178000000e00097
:101c50000200320000077800010037007287570049
:101c60008002eb000100e000010032008102e90087
:101c700070805700060009000018eb0072805700c2
:101c800000a8eb002310200093bf9f00aebf9f0071
:101c9000b1bf9f00c5bf9f000100e00004003d00f0
:101ca000b0042000704388000080eb00050037007e
:101cb000004feb00eebf9f00debf9f008400780066
:101cc000030007004f0778002f01b1000000060055
:101cd0000200fa00881f780000047800e2bf9f002d
:101ce000648157000800780032ff070098009000d8
:101cf0000148a300010032000080eb004f0478008f
:101d00000080fa000000060080007800100020002b
:101d100002022000828f500004003200e98050004f
:101d2000e48f5000010036000000eb0000000600c8
:101d3000889fbe008a1f780080047800090478001c
:101d400088047800394578000a00fb00eeff0700a0
:101d50000000e000f9ff3a00b0c2b300804f550028
:101d600005003200d0c2b3008000eb00804f550068
:101d700005003a00020037008000eb000100370048
:101d8000110020000804e8000000eb000300370009
:101d90006a02b900020052000003b0003801fb00e3
:101da00003fd2f0082814100e98f5100f8ff3600ca
:101db0000100e00001003a000000ea004f05780051
:101dc0004f04be0000000600f1fb2f0080804000a1
:101dd000f98f500001003e000050a00000000600f6
:101de000f9ff3700f1f92f0080804000f98f500093
:101df00001003e00f005b20000000600f9ff3700c8
:101e0000881f78000004780000082000808f5000b0
:101e10001700350010082000808f50000b003400a0
:101e200030082000808f500011003a0092007800a6
:101e300068805000000978003002be002003be0018
:101e4000049cbe000694be00070037009202780092
:101e500064805200000978001000be009a0007005c
:101e6000009cbe000294be0010002000010037005c
:101e70000000eb004f0478000000060084082000fa
:101e8000848f50001d0032000d003c00140820001b
:101e9000848f50002700320002003c00040820001c
:101ea0000400370024082000848f50002a003200ec
:101eb00044082000848f500048003a003b0037005f
:101ec000040a2000848f50002c00320004003c00e3
:101ed00004092000848f500040003a002d00370094
:101ee000020c2000828f50001e003200020f2000e2
:101ef000828f500039003a00300037009380e900ab
:101f00000200e00005003200810978001102fb00a8
:101f1000cfa2de00612bb9002d00370081097800c7
:101f2000114278000482fb008002eb006033b800ad
:101f30002700370013027800e40052000200e0009e
:101f40000a003200810978001102be004fabde00aa
:101f5000860378001e00370093027800e880520064
:101f60000e00370093027800e48052008109780067
:101f70001102be006033b800150037009380e900fd
:101f80008109780011027800cfa2de00612bb90030
:101f90000f00370013037800e80053008109780030
:101fa0003102be002103be00090037009380e90022
:101fb0000200e00002003200f1ff37009380e900e8
:101fc00081097800110278008002eb006033b800cc
:101fd0000498be000690be00100005000000050039
:101fe00044082000848f5000270032000a003c0083
:101ff00014082000848f50001c00320024082000a8
:10200000848f50002600320004082000848f500086
:102010002c003a001c00370004092000848f500077
:102020001f00320004003c0084082000848f500010
:1020300024003a0007003700040a2000848f500073
:1020400011003200040c2000848f50001d003a0063
:10205000060037009380e90081097800910078003c
:102060000108780082487800150037009380e90065
:10207000810978009100780001087800cf91de0096
:102080008288be000e0037009380e9008109780045
:102090009100780001087800820878000800370075
:1020a0009380e900810978009100780001087800a8
:1020b0006112b900612bb9008498be008690be0001
:1020c0001000050000000500810378000ff90700eb
:1020d0000001be006000b8000478a30013003a00bd
:1020e0006220e10015003e000d0039008301d1009f
:1020f0000281d3008180d3008301d1000281d3000b
:102100008180d3008301d1000281d3008180d3007c
:102110000538b000c42add00f300b20083817200ec
:1021200007f0a70003f0a0000000060083ff2700cf
:10213000020020006110b900f9ff370003ff2700fb
:10214000f7ff3700020ab900001bb9000200b8000f
:10215000810042008100430000000600889fbe000d
:102160008a9fbe0030044200b0844a0030054b0014
:1021700090854b006000b1000898be000a90be0038
:102180000440e10005c8e10006d0e10007d8e10005
:1021900002003100680040001008e8004f05be0052
:1021a0004f04be0000000600889fbe008a9fbe004c
:1021b0003004be002005be000418540005985c00e1
:1021c00006185d0007985d00110020000440e10042
:1021d00005c8e10006d0e10007d8e10001003900a0
:1021e0008000eb00108810004f05be004f04be00b9
:1021f00000000600f4874700889fbe008a9fbe004b
:102200008c9fbe008e1f7800d0b79f00e1b79f0063
:10221000f2b79f0083bf9f000605be000404be0006
:10222000cfae97000000eb00c0b79f00b0b79f0093
:10223000a0b79f0090b79f0080b79f00000678006e
:102240004fb09700000140000000e00006003d0094
:102250003c0007000f074700450007000f00400043
:10226000beff070005003700360007000f074700d4
:102270003f0007000f004000cbff07004fb797005b
:102280000e00e0000c0035005fb29700efb297003f
:102290007fb397008fbb9700100020000100200043
:1022a0006011b800000272008182720002037300a4
:1022b000838373001c0007000c06e8000104200063
:1022c000810f5600deff3a000e00e00005003d00e1
:1022d0000802be000a03be0000fe2f000f004000ef
:1022e0009eff07000d00e00005003a000fb29700c6
:1022f0009fb297002fb39700bfb397000a00070063
:102300005fb09700efb097007fb197008fb997004b
:102310004f0778004f06be004f05be004f04be00b9
:102320004f01b10000000600010007000000060098
:1023300094b79f00a5b79f00b6b79f00c7b79f008f
:10234000000006009fb097004f08de0002017000f9
:10235000a2b79f000fb097004f01de0081804000c0
:102360008100710091b79f000efe2f000000060053
:10237000de0078004f09de00000040000000710020
:1023800080b79f006fa897004f01de00818040005a
:10239000010f71000e0007004f3ade000000400000
:1023a00004007000e0af9f00090007000402420033
:1023b00085824a0006034b0087834b00dcff070041
:1023c0000802be000a03be0000fe2f000000060047
:1023d0001fb29700afb297003fb39700cfb39700fb
:1023e00000000600881f780018002000881f780071
:1023f00080ff07008f87e9004f0478000000060087
:10240000801feb007bff07008f87e90000000600bc
:10241000889fbe008a9fbe00e00f5000e08f5800ea
:10242000e00f5900e08f59000c003d006044b800f7
:102430006055b8000000540081805c0002015d001e
:1024400083815d00180020001500070008003d0092
:10245000180007000004eb00050037000004eb0043
:102460000f00070002003d001200070018002000c6
:10247000dcff07000800e000060032006022b80020
:102480006033b8000000520081805a0002015b00f6
:1024900083815b004f05be004f04be0000000600b4
:1024a000e00f5200e08f5a00e00f5b00e08f5b000e
:1024b000000006006044b8006055b80004025400f3
:1024c00085825c0006035d0087835d0000000600d6
:1024d000889fbe008a9fbe008c1f7800e00f5000ce
:1024e000e08f5800e00f5900e08f59000d003d00cb
:1024f0006044b8006055b8000000540081805c0062
:1025000002015d0083815d001c0020000820e100c5
:1025100009a8e1000ab0e1000bb8e1000d003d00a0
:10252000080037000006eb00e00f5200e08f5a0071
:10253000e00f5b00e08f5b0006003d006044b800e8
:102540006055b8000402540085825c0006035d00fb
:1025500087835d00aaff07000c00e0000600320040
:102560006022b8006033b8000000520081805a0039
:1025700002015b0083815b004f0678004f05be00bf
:082580004f04be00000006003c
:020000040000fa
:10258800436800006172000020520000656300008b
:0c259800763a00000025000064000000fe
:020000040000fa
:1025a4000a00fa00889fbe008a9fbe008c9fbe006e
:1025b400e4014700800978006600470001087800bc
:1025c40068004700020878006400470010007800a3
:1025d400cf80de00c9f7070062662600634e240040
:1025e400def70700a4f70700008fbe00f0ff2f00fe
:1025f400010020001e01be00800f5100818f590090
:102604000a003c0066004700100078008000eb00e0
:10261400010878009e0078006800470010007800e8
:10262400010878000000eb00520037001e00be00d5
:10263400e00f5000e08f580002003d0067004000aa
:10264400e08048004d09dd004306de000c06710001
:10265400c38ede000c8fbe00f0ff2f0001002000af
:102664001e01be00800f5100818f59000a003c00fa
:10267400660047001000780011002000010878006f
:102684009e00780068004700100078000108780078
:102694000000eb00370037001e00be00e00f5000c2
:1026a400e08f580002003d0067004000e0804800d1
:1026b4004d09dd004305de000a057100c38dde000f
:1026c4000a8fbe00f0ff2f00010020001e01be0093
:1026d400800f5100818f59000a003c0066004700ba
:1026e4001000780021002000010878009e00780086
:1026f4006800470010007800010878000000eb0033
:102704001c0037001e00be00e00f5000e08f580090
:1027140002003d0063004000e08048004e09dd00f7
:102724004204de0008047100c28cde00088fbe0083
:10273400f0ff2f00010020001e01be00800f510099
:10274400818f59000a003c006600470010007800a1
:1027540031002000010878009e00780068004700de
:1027640010007800010878000000eb000100370039
:10277400100020004f06be004f05be004f04be00ef
:102784000080fa00000006000800fa006401470017
:102794000009780066004700010878000e80e80010
:1027a4000e01780080007800660047001000780071
:1027b4007bff07006400470010007800e10f500021
:1027c40003003200e20f50001d00320039003700d0
:1027d4000e80e8001000780000407800634060003c
:1027e4000080fb00630060004400dd0022088000dc
:1027f400f1fc2f00810061000100700020088800b6
:102804001e007800100888000421a90004c1a90052
:1028140005e1a9008460a9000021ef0005e1a800fa
:102824000000000020048000680060000000e00058
:10283400fcff32008460a90005e1a9001d003700f7
:102844000e80e800100078000040780063406000cb
:102854000080fb00630060004400dd00820880000b
:10286400f1fc2f00810061000100700080088800e5
:102874001e007800600888001021a90010c1a9007a
:1028840011e1a90084c0a9000621ef0011e1a8000c
:10289400000000002104800000042000008060008b
:1028a4000000e000fbff320084c0a90011e1a90090
:1028b400000000000000eb000080fa0000000600a9
:1028c4000800fa0064014700000978006600470028
:1028d400010878000e80e8000e017800800078007e
:1028e40066004700100078002dff070064004700d1
:1028f40010007800e10f500003003200e20f500096
:1029040014003200260037000021ef000e80e8009a
:102914001000780000407800634060000080fb00f5
:10292400630060004400dd0022088000f1fc2f00f9
:102934008100610001007000200888001e007800fa
:10294400100888000421a90004c1a90005e1a80019
:10295400130037000621ef000e80e8001000780015
:1029640000407800634060000080fb00630060006a
:102974004400dd0082088000f1fc2f00810061002a
:1029840001007000800888001e007800600888003c
:102994001021a90010c1a90011e1a8000000000045
:1029a4000080fa00000006000200fa00000f780020
:1029b4001e007800e10f500003003200e20f5000c7
:1029c400080032000f0037000000000020048000df
:1029d400680060000000e000fcff32008460a90091
:1029e40008003700000000002104800000042000db
:1029f400008060000000e000fbff320084c0a900fa
:102a0400000000000080fa00000006000200fa0046
:102a1400004f780000000000001180006200600098
:102a24000000e000fcff3a001e00fb0020118800bb
:102a34000080fa00000006000200fa00000f78008f
:102a44000000000000118000620060000000e0004f
:102a5400fcff3a001e007800201188000080fa0074
:102a6400000006000400fa008e80e8008008780068
:102a74000000eb00000f78000d003700000000009c
:102a840000118000620060000000e000fcff3a00da
:102a94009e0078000e80e8001000780001004000dd
:102aa400104078000000fb00201188001e0fe80091
:102ab4009e0078000e80e8001000780001004000bd
:102ac400104078000004e000ecff3a000080fa00b7
:102ad400000006000200fa00000f78000108200040
:102ae4001e804000d4ff07000080fa0000000600aa
:102af4000200fa00000f7800010c20001e80400044
:102b0400cdff07000080fa00000006000200fa0072
:102b14000000eb00efff07000000eb00000f78005f
:102b24000000eb00000f78000300370000c2b30080
:102b3400b6ff07001e0fe8001e007800ef0f5000dc
:102b4400faff34000080fa00000006000200fa00d8
:102b5400a0002000e6ff07000000eb00000f780053
:102b64000300370000c2b300a8ff07001e0fe800ef
:102b74001e007800e50f5000faff34000080fa00d0
:102b8400000006000400fa00000f78000e80e80040
:102b9400014878001e007800e003b00010007800bf
:102ba4009e007800008040008e80e8001148780084
:102bb4001e007800e003b000100078008000e800f8
:102bc4001e007800e003b000010878001e007800c1
:102bd400e003b00090007800c0032000808f500014
:102be40004003a001e0078008000eb00e003b0000f
:102bf400010878000080fa00000006000400fa00d2
:102c0400000f78000e80e800010878001e007800ac
:102c1400c003b000900078001e007800e003b0000c
:102c240010007800808f500002003a000000eb0092
:102c34001b0037001e007800c003b00010007800ad
:102c44009e00780000804000104078008e80e800ec
:102c540091007800804878001e007800c003b0001e
:102c6400100078008000e8001e007800c003b00067
:102c7400010878001e007800c003b00090007800be
:102c8400c0032000808f500004003a001e0078002a
:102c94008000eb00c003b0000108780010002000a1
:102ca4000080fa00000006000400fa00c602a90031
:102cb4005028ef004e28ef00d902a800d202a80045
:102cc40022a2a8002342a900101180003000b30002
:102cd400101188001111800030fe2f000080600068
:102ce4008001b3001011880021e2a800813e200079
:102cf40010002000a4fe0700b0002000f01088009f
:102d04001602a900b110800090ff2f00008060001f
:102d1400b010880017e2a8001942a8008c00a8008f
:102d24008e00a8008f00a8000000eb0070ff0700d1
:102d3400402c29004bff0700a100200010002000b8
:102d4400dffe070071002000200020008efe070037
:102d54008f00a9000e80e800800078002081200008
:102d6400a6ff0700000f78001e007800e10f500056
:102d74001b003a000040800056ff07000e80e80068
:102d840010407800ed4f5000070032000e80e8003c
:102d940010407800ea4f50000300320000408000e9
:102da400f00f500004003a0058ff07000028ef001d
:102db40066ff07000a0037000e80e8001040780024
:102dc4000004e000060032000e80e80010407800a5
:102dd4000eff0700004080000000e800004088006b
:102de40000408000801f7800f02c2900801f7800ac
:102df4002080200040f70700e4875700a00020004f
:102e04003bff07002080200016ff07008f00a8006a
:0c2e140010002000e4fe0700caff370099
:020000040000fa
:102e200000080000520000000000000052080000ee
:102e30001c00000002000000286e69006c290000e0
:102e400068076c00094c83006a907400a07ac00087
:102e500000806800880084006c820000810000000f
:102e60006e080000020000000000000000000000ea
:00000001FF
